:10000000CFC00000F2C00000F0C00000EEC0000051
:10001000ECC00000EAC000000C945B0FE6C00000DA
:10002000E4C00000E2C00000E0C00000DEC000004C
:100030000C944F10DAC00000D8C00000D6C00000F9
:10004000D4C00000D2C00000D0C000000C9406153F
:10005000CCC000000C942615C8C00000C6C000002B
:10006000C4C00000C2C00000C0C00000BEC000008C
:100070007E0AED09DC09C50945074507450745071F
:10008000450745074507450745076E0A45074507E4
:100090005D0A9E098A094F0A450745074507220A56
:1000A000EB08B409450745074507450745074507D8
:1000B000450745070B0A010A450745074507450758
:1000C00045074507450745074507160A45074507FC
:1000D00075096A09450745074507450745073F096B
:1000E000450733098F07F6081D080308D5076D0774
:1000F000A20897086D076D077F076D076D076D07ED
:100100006D076D076D078D086D076D076D076D072E
:100110006D076D076D076D076D076D077E08FC089D
:100120006D076D076F08520847086D076D07C30715
:100130006D076D076D076D076D076D076D076D071F
:10014000B4078F072C091D080308D5074507A20827
:1001500097084507450745074507450745074507EC
:10016000450745078D0845074507450745074507E6
:10017000450745074507450745077E080A0945071E
:1001800045076F085208470845074507C307450755
:100190004507450745074507450745074507B40790
:1001A00011241FBECFEFD4E0DEBFCDBF0FB6F89451
:1001B000A89581B5886181BD11BC0FBE11E0A0E09A
:1001C000B1E0EAEAF2E302C005900D92AE37B10762
:1001D000D9F724E0AEE7B1E001C01D92A835B2071F
:1001E000E1F70E94330B0C9453190ACF969A1092A0
:1001F000B10108954FB7F8941092B301A898809177
:10020000A30180FD03C081E08093A3012091EE0152
:100210003091EF018091EA019091EB0182179307F1
:1002200058F08091F6019091F70101969093EB01BF
:100230008093EA014FBF08958091F6019091F701F4
:100240002817390790F73093F7012093F601C90179
:1002500001969093EB018093EA014FBF08954FB749
:10026000F8941092B401A9988091A40180FD03C074
:1002700081E08093A4012091F0013091F1018091FF
:10028000EC019091ED018217930758F08091F801ED
:100290009091F90101969093ED018093EC014FBF8D
:1002A00008958091F8019091F9012817390790F786
:1002B0003093F9012093F801C90101969093ED0163
:1002C0008093EC014FBF0895883018F4880F880F91
:1002D000880F613061F108F1623069F06330B1F488
:1002E0008830D9F1803209F04AC08AE28093000157
:1002F000809301010895883059F1803299F58AE29E
:100300008093000188E280930101089587E0809343
:10031000000181E0809301010895883099F08032D6
:10032000A9F782E08093000180930101089588304D
:1003300049F08032F1F487E08093000182E08093FD
:100340000101089583E08093000110920101089556
:100350006093000110920101089510920001109223
:100360000101089587E08093000185E080930101F9
:10037000089584E08093000160930101089580E175
:100380008093000188E28093010108954F925F926B
:100390006F927F928F929F92AF92BF92CF92DF9295
:1003A000EF92FF92CF93DF93C82FD0E0FE01EE0FC4
:1003B000FF1FEE0FFF1FED56FE4F86A897A8A0ACBB
:1003C000B1AC60E072E18AE790E0A50194010E947F
:1003D000EF1869017A010E94AA172B013C01C5019F
:1003E000B4010E94AA179B01AC01C301B2010E9493
:1003F000161720E030E040E052E40E94781820E038
:1004000030E040E05FE30E949F160E947E174B01A0
:100410005C01E114F10451F480E8C816D104E10450
:10042000F10408F066C02FE730E002C02EEF3FEF86
:10043000CE01002496958795079496958795079405
:10044000982F802DFC01EA53FC4F8A5F9B4F21932C
:100450003193E817F907D9F781149104A104B10485
:10046000C9F1C501B4010E94AA172B013C01C12C9E
:10047000D12C7601CC0FDD1FC295D295D07FDC2721
:10048000C07FDC27C701B6010E94AA1720E030E038
:1004900040E052E40E947818A30192010E941617CE
:1004A0000E9403170E947E17FE01E60FF11DEE0F5A
:1004B000FF1FEA53FC4F80819181019691838083D5
:1004C0008FEFC81AD80AE80AF80A8C149D04AE0403
:1004D000BF04C1F6DF91CF91FF90EF90DF90CF90F6
:1004E000BF90AF909F908F907F906F905F904F9054
:1004F000089581E0C81AD108E108F108960198CF63
:100500000F931F93CF9308E010E0C0E0C8010E9452
:1005100018139C2F982788E027E0990F08F492275A
:100520008A95D9F7C92F0F5F1F4F043E81E0180746
:1005300069F7911101C0C1E08C2FCF911F910F91EC
:100540000895CF9387E090E00E941813C82FD8DF5A
:1005500091E0C81390E0892FCF9108951F93CF9316
:10056000DF9300D000D0CDB7DEB7182F40E050E0C9
:1005700063E0CE0101960E943E1343E050E063E049
:1005800071E0CE0101960E943019892B49F080E07C
:100590000F900F900F900F90DF91CF911F910895C2
:1005A00043E050E064E0CE0101960E943E1344E037
:1005B00050E067E071E0CE0101960E943019892B6E
:1005C00031F7112379F180914604843000F78823B4
:1005D00069F18091C5038132D0F68091E601909156
:1005E000E701C2978F37944090F68091E80190918F
:1005F000E901C2978F37944050F68091F2019091B3
:10060000F301892B21F28091F4019091F501892B5E
:1006100009F4BDCF9091DC01915081E0933108F451
:10062000B7CFB5CF8EDF8111CECFB1CF8091C503CB
:10063000813198F2ACCF89E090E00E94181391E0EC
:10064000811101C090E09093C3038AE090E00E9482
:10065000181391E0811101C090E09093C4038BE0E6
:1006600090E00E9418138093460488E090E00E9476
:1006700018138093C5038BE290E00E94181391E059
:10068000811190E09093820181E09091C5039830B0
:1006900008F080E0809384018AE290E00E941813C1
:1006A00091E0811190E0909383019091C50398307F
:1006B00010F08111C3C01092850141E06EE273E039
:1006C00080E090E00E944515609146048091C5034A
:1006D000FBDD80E043DF8111B6C081E080938801BB
:1006E000BF9A80918801813009F4F2C0C7988A9836
:1006F000929A309A389AD798DF9AD498DC9AD698FA
:10070000DE9AD598DD9AD19AD998D09AD8988E9AAF
:10071000969AB89AC09A8C9A9498329A3A988B9AE8
:1007200093988F9A9798E0918401F0E0E050FF4F02
:100730008081282F217080FF52C0959A982F987041
:1007400083FD52C08D9A222309F451C0C49A91119D
:1007500052C0BC9A282F227081FF52C0DB9A982F7A
:10076000907184FD52C0D39A222309F451C0C39AD8
:10077000911152C0BB9A282F247082FF52C0DA9A7E
:10078000982F907285FD52C0D29A222309F451C04D
:10079000C29A992309F450C0BA988FE99FE0019753
:1007A000F1F700C00000D99AD89A89B78C7F89BF29
:1007B00013BE319A3998B99AC19816BC12BC17BCAD
:1007C00017BC87B5806687BD87B5846087BD0E94EA
:1007D0005F1460E875E280E090E00C94EC1395986B
:1007E000982F987083FFAECF8D982111AFCFC4980A
:1007F000992309F4AECFBC98282F227081FDAECF8B
:10080000DB98982F907184FFAECFD3982111AFCF92
:10081000C398992309F4AECFBB98282F247082FD8A
:10082000AECFDA98982F907285FFAECFD298211173
:10083000AFCFC2989111B0CFBA9AAFCF81E0809379
:10084000850148E03BCF80E0A1DD81E09FDD409164
:10085000F2015091F301AAEFB1E0EAEBF2E020E0FF
:1008600030E00CC012968C91129790E00196280F00
:10087000391F139682E0AA3BB80731F08D919C9105
:1008800011974817590770F33093C0032093BF03A3
:100890004091F4015091F50120E030E00AC08281DE
:1008A00090E00196280F391F339693E0EA37F90755
:1008B00029F0808191814817590788F33093C2034A
:1008C0002093C103BF9A80918801813009F00ECF37
:1008D000C79A0DCF40E050E063E083E091E00E94D2
:1008E000AA1343E050E064E087E091E00C94AA137F
:1008F000CF93DF93C3E9D1E06EA57FA588A999A91D
:100900004EE050E00E9493136AA97BA98CA99DA98F
:1009100042E150E00E9493136EA97FA988AD99AD82
:1009200046E150E00E9493136AAD7BAD8CAD9DAD66
:100930004AE150E00E9493136091D3017091D40179
:100940008091D5019091D6014EE150E00E94931321
:100950006091D7017091D8018091D9019091DA010D
:1009600042E250E00E949313C3ECD3E069E070E0F0
:1009700088810E9480136AE070E089810E94801360
:100980006BE070E0809146040E94801368E070E0A4
:100990008091C5030E9480136CE070E08091F201A9
:1009A0000E9480136DE070E08091F4010E9480133A
:1009B00066E270E08091E6019091E7010E94841365
:1009C00068E270E08091E8019091E9010E9484134F
:1009D00080918301C1E06AE270E08C270E9480135D
:1009E000809182016BE270E08C270E9480136CE2A0
:1009F00070E08091E4019091E5010E9484136EE221
:100A000070E08091DC010E94801344E650E060E4D5
:100A10008AEF91E00E94CB1344E251E060E48AEB5C
:100A200092E00E94CB136CDD67E070E0DF91CF9124
:100A30000C948013389800000000000000008091A2
:100A40008201882321F0829B02C082E00895389AB7
:100A5000000000000000000080B382FB992790F99D
:100A600081E089270895829B14C038988AE00000AD
:100A70008150E9F7309888EC00008150E9F7829BBB
:100A800004C082E0309A389A089581E0309A389A0A
:100A9000089580E0309A389A0895882389F0C098A4
:100AA00081E08093B20110927D0089B7837089BF85
:100AB0001FBC88E18EBD10928B0080938A00089540
:100AC000969881E08093B101EECF80919B01909147
:100AD0009C0129B7277F29BF209184003091850090
:100AE00049B7486049BF4091EE015091EF01782F1E
:100AF000692F8417950710F4742F652FE091B501C5
:100B0000E1113AC024173507B8F549B7477F49BF07
:100B10009093EB018093EA01309385002093840049
:100B20007093F6016093F7019091C3038091AF0138
:100B3000981729F1939AEE23D9F081E090E099BDBE
:100B400088BD8091FC018093800110927E0112BECD
:100B50001DBC1CBC8091C6039091C70395BD84BD8C
:100B60008EB5897F8EBD8EB581608EBD1092B50128
:100B700089B7886089BF0895272F362FC6CF9398ED
:100B8000DACF80919D0190919E0120917D002F7D73
:100B900020937D00209186003091870040917D0058
:100BA000406240937D004091F0015091F101782F17
:100BB000692F8417950710F4742F652FE091B60103
:100BC000E11147C02417350708F043C040917D006C
:100BD0004F7D40937D009093ED018093EC01309325
:100BE0008700209386007093F8016093F90190913B
:100BF000C4038091B001981779F1979AEE2319F107
:100C000081E090E09BBD8ABD8091BC028093810110
:100C100010927F0111BE109289001092880080917D
:100C20000604909107049093810080938000809146
:100C30008A00897F80938A0080918A0081608093F6
:100C40008A001092B60180917D00806280937D00C1
:100C50000895272F362FBACF9798D0CF3F924F9233
:100C60005F926F927F928F929F92AF92BF92CF923C
:100C7000DF92EF92FF92CF93DF93E82FF0E0DF0156
:100C8000AA0FBB1FED01C154DC4FE880F980EF01D2
:100C9000CD56DE4F9CA1992329F0A701440F551F83
:100CA000E40EF51E9A8D19160CF093C03A8C9C8DAB
:100CB0009F01220F331F220F331FE901CD56DE4F54
:100CC0004A895B896C897D89A32CB12C2501440C50
:100CD000551C052C000C660877084415550566055B
:100CE000770530F44A8A5B8A6C8A7D8AB301A20157
:100CF000AE9C6001AF9CD00CBE9CD00C11244A016C
:100D00005B01B694A79497948794AE50BE4F0D9014
:100D1000BC91A02DC8E03C1609F457C0E12CF12C81
:100D20008C149D04AE04BF0410F4750164014C19C9
:100D30005D096E097F09E901CD56DE4FC880D98073
:100D4000EA80FB80992339F0709560955095419524
:100D50005F4F6F4F7F4FE901C757DE4F4C0D5D1D51
:100D60006E1D7F1D488359836A837B83EE0FFF1FAF
:100D7000E556FE4FB183A08395B3811113C09B7FCD
:100D800095BBA89ADF91CF91FF90EF90DF90CF9025
:100D9000BF90AF909F908F907F906F905F904F909B
:100DA0003F9093CE977F95BBA99ADF91CF91FF900B
:100DB000EF90DF90CF90BF90AF909F908F907F90FB
:100DC0006F905F904F903F90DCCE487FC8EF8C22B1
:100DD000A5CF9A8D392E31946ACF811106C08091AA
:100DE000B501811101C006CA089589B7877F89BFFF
:100DF0008EB5887F8EBD1092B30181E08093B501DE
:100E00008093A30110929101A8980895811106C0C2
:100E10008091B601811101C022CA089580917D00A0
:100E20008F7D80937D0080918A00887F80938A00E7
:100E30001092B40181E08093B6018093A4011092D6
:100E40009201A9980895CF92DF92EF92FF920F93AB
:100E50001F93CF93DF93C82F8B010E949B16D82F2F
:100E60008091880181112DC0CF3409F448C01092BF
:100E700087018C2F0C2E000C990BAA0BBB0BFC01CD
:100E8000E554F109EF32F105B0F120E030E0A901BD
:100E90006C2FC8010E945315CA3489F480918801CF
:100EA00081110DC08D2F90E0FC01EF56FE4F21E027
:100EB0002083FC01ED56FE4F808980FF20A3D1E006
:100EC00049C04C2F0C2E000C550B660B770BFA010A
:100ED000E554F109EF32F10550F0FA01E154F1095E
:100EE000EA33F10590F6E85CFF4F0C941119EE58C7
:100EF000FF4F0C941119EF55FF4F0C941119D1119C
:100F000043C1D8018C91803309F417C3399A1092E8
:100F10008701D1E020E030E0A901CFE417C0CFB7CE
:100F2000F894C8010E947116ED2FF0E0EE0FFF1F3C
:100F3000EE0FFF1FED56FE4F608371838283938314
:100F4000CFBFD1E020E030E0A901C5E46C2FC8019B
:100F50000E9453158D2FDF91CF911F910F91FF901C
:100F6000EF90DF90CF900895ED2FF0E0EE0FFF1F90
:100F7000EE0FFF1FED52FE4F2081318142815381E0
:100F8000D1E0C3E7E3CF8FB7F894ED2FF0E0EE0F99
:100F9000FF1FEE0FFF1FED56FE4F20813181428172
:100FA00053818FBFD1E0CAE6D1CFC8010E9471162C
:100FB000B62F2D2F30E040ECD49FF0011124E954DE
:100FC000FD4FC080D180E12CF12CF901EE0FFF1F05
:100FD000E556FE4F4B2F572FBC014C155D056E0596
:100FE0007F0508F4CEC051834083F901EF56FE4FD0
:100FF0008081823009F4E6C01082D1E020E030E048
:10100000A901C9E4A3CFC8010E9471162D2F30E0B9
:10101000F901EE0FFF1FEE0FFF1FED56FE4F628B23
:10102000738B848B958BF901EF56FE4F1082D1E0C4
:1010300020E030E0A901C8E489CFD8012C918D2FA0
:1010400090E0FC01ED56FE4F30ED320F308B31E079
:1010500011964C91403309F4B3C0348FDC01AF5684
:10106000BE4F1C9282A1882309F47BC08091850128
:10107000882309F476C02153223008F483C281E02A
:1010800084A3D1E020E030E0A901C7E45FCFED2FD9
:10109000F0E0ED56FE4F26AD30E040E050E0D1E00C
:1010A000C7E654CFED2FF0E0ED56FE4F84A1882324
:1010B00009F481C020E034E0848D8111326080A188
:1010C000811101C0316082A1811101C02061868D32
:1010D0008111216040E050E0D1E0C6E637CFED2F2E
:1010E000F0E0EE0FFF1FEE0FFF1FED56FE4F26A1A3
:1010F00037A140A551A5D1E0C5E628CFED2FF0E0FE
:10110000EE0FFF1FEE0FFF1FED56FE4F26A537A572
:1011100040A951A9D1E0C1E619CFC8010E946216C9
:1011200082BDD1E020E030E0A901C6E50FCF81E02B
:10113000D1111DC052DE5AD8D1E020E030E0A90123
:10114000CCE404CF80E0DD23C9F160DEED2FF0E0D8
:10115000EF56FE4F1082D1E020E030E0A901CBE451
:10116000F5CED1E020E030E0A901C7E4EFCE4EDEBD
:10117000C09A1092B201D1E020E030E0A901CCE4A5
:10118000E5CEB701A6012FCFF801808120ED280F11
:101190002093880190918701933108F0C3C1815356
:1011A000833008F4D3C110928701D1E020E030E011
:1011B000A901C0E0CBCE20E030E07ECF0EDEC6CF6E
:1011C00030E04BCFD111BBC180DCD1E020E030E07A
:1011D000A901C9E4BBCEC8010E946216ED2FF0E060
:1011E000E258FE4F8083803408F462C1D1E020E0F1
:1011F00030E0A901C0E0AACEED2FF0E0EE0FFF1F16
:10120000EE0FFF1FED56FE4F26A937A940AD51AD99
:10121000D1E09CCE8D2F90E0FC01EE0FFF1FEA5134
:10122000FE4F208131817901EE0CFF1C880F991F40
:10123000880F991FFC01ED56FE4FD701119626A984
:1012400037A940AD51AD0E942619970140E050E00A
:101250000E94EF18D1E07ACE8D2F1FDCD1E020E084
:1012600030E0A90173CEED2FF0E0EE0FFF1FEE503E
:10127000FE4F2081318140E050E0D1E067CE4D2F1C
:1012800050E0FA01E258FE4F6081262F30E0C9019C
:10129000880F991F820F931F70EC749F9001759FA8
:1012A000300D1124820F931F8D569E4FDC01A959DA
:1012B000BF4FDC9111967C91119712962D2F372FED
:1012C0004C9150E081E0860F803408F462C11082B6
:1012D000D1E03CCEDD2309F488C12091E4013091B6
:1012E000E50140E050E0D1E031CEDD2309F46FC1EB
:1012F00090918301292F30E040E050E08091C503B8
:10130000883008F482C181E089278170809385014B
:10131000D1E01CCEC8010E947116ED2FF0E0EE0F57
:10132000FF1FEE0FFF1FED52FE4F6083718382831C
:101330009383D1E020E030E0A90108CEC801DD238D
:1013400009F42AC10E94711661157105F1E08F0739
:10135000910508F04BCF7093E5016093E401D1E073
:1013600020E030E0A901F2CDC8010E946216ED2F05
:10137000F0E0EE0FFF1FEE50FE4F90E09183808370
:10138000D1E020E030E0A901E1CDC801DD2309F47E
:1013900033C10E9462168093C503883008F438C1B7
:1013A0009091830181E08927817080938501D1E04C
:1013B00020E030E0A901CACD8D2F90E0FC01ED5373
:1013C000FC4F81E0D8019C91903309F424C18083C3
:1013D000D1E020E030E0A901B9CDC8010E9471162A
:1013E000ED2FF0E0EE0FFF1FEE0FFF1FED56FE4F4B
:1013F00066AB77AB80AF91AFD1E020E030E0A901E0
:10140000A5CDDD2309F4EAC02091C50330E040E01A
:1014100050E0D1E09BCD8D2F90E0FC01ED53FC4FCF
:10142000208130E040E050E0D1E090CDED2FF0E0C1
:10143000EE0FFF1FEA51FE4F2081318140E050E066
:10144000D1E084CDC8010E947116AD2FB0E0FD013E
:10145000E258FE4F9081292F30E0A901440F551F1B
:10146000420F531FD0ECDA9F9001DB9F300D112407
:10147000240F351F2D563E4FD901A959BF4F119644
:101480007C936E9312968C9381E0890F803408F4DC
:101490009ECF1082D1E020E030E0A90157CD82300C
:1014A00009F4DBC0833009F4D2C0813009F4B5C03F
:1014B000D1E020E030E0A90149CDC801DD2309F4E5
:1014C00079C00E94621691E0811101C090E0909372
:1014D0008301D1E020E030E0A90138CDC8010E94AD
:1014E0007116ED2FF0E0EE0FFF1FEA51FE4F7183F2
:1014F0006083D1E020E030E0A90128CDC8010E943E
:101500007116ED2FF0E0EE0FFF1FEE0FFF1FED56EF
:10151000FE4F66A777A780AB91ABD1E020E030E02B
:10152000A90114CD84E180938701211118C0D0E076
:1015300020E030E0A901CFE409CD3998E8CC21DBE7
:10154000D1E020E030E0A901C9E400CD9F5F909395
:101550008701D1E020E030E0A901C0E0F7CC81E0D4
:101560003CDC0E94F60081E051DCC09A1092B2018E
:101570001092910110929201D1E020E030E0A90197
:10158000CFE4E4CC14A2D1E020E030E0A901C7E42C
:10159000DDCC8083D1E0DACC0E9462169FEF980FF9
:1015A000933108F023CE8093DC01D1E020E030E0DD
:1015B000A901CCCC0E94621691E0811101C090E09B
:1015C00090938201D1E020E030E0A901BFCC2091CE
:1015D000820130E040E050E0D1E0B8CC20914604F8
:1015E00030E040E050E0D1E0B1CC2091DC0130E0CF
:1015F00040E050E0D1E0AACC0E94621680934604FD
:10160000D1E020E030E0A901A1CC80E090E07DCEE7
:1016100080E090E0C9CE80E0DACE81E0F8019081F0
:10162000903309F480E00E94AE02882309F4DECDF5
:101630000E94A10281113CCF0E94800267E070E00D
:101640000E948013D1E020E030E0A9017FCC42D994
:10165000D1E020E030E0A90179CC4AD9D1E020E006
:1016600030E0A90173CCCF93DF93CDB7DEB72F97CE
:101670000FB6F894DEBF0FBECDBF78940E941B0357
:1016800080918601BB24BA94DD24DA94612C1F86F4
:10169000F12CC12C00E010E0AA24A39499249A9480
:1016A00092E0792E212C312C20E8422E512C38E169
:1016B000832E0F5F1F4F811132C10115110509F0F3
:1016C00098C080918801882309F410C2809102019A
:1016D000811194C088B3805888BBC5D9E82E809109
:1016E000DB01E816C9F18E2D10D780918501882382
:1016F00021F092E0E91609F454C380910001909121
:10170000AF01992309F4F7C29092AD011092B7018D
:101710009091B001992309F4EBC29092AE0110921E
:10172000B801382F317080FFAFC2959A282F2270F0
:1017300081FFA8C2DB9A982F947082FFA1C2DA9A27
:10174000332309F49BC2C49A222309F495C2C39A95
:10175000992309F48FC2C29ACC9BEDC0CF9B74C26F
:10176000EE24EA9480E09FB7F89460918400709131
:1017700085009FBF2091B501211124C14091AF0187
:1017800050E0E82FF0E04E175F0709F41BC14091CD
:10179000EE015091EF016417750708F013C10E9424
:1017A000FA00CD9B3BC1CE9B4AC2EE24EA9480E076
:1017B0009FB7F89440918600509187009FBF909109
:1017C000B601911163C12091B00130E0682F70E043
:1017D0002617370709F429C22091F0013091F10151
:1017E0004217530708F021C20E942F018091860101
:1017F00060CF90910201992309F499C08EEFF816F9
:1018000009F4A2C00E94A9148823E1F088B380588B
:1018100088BB0E94B414C82E6C2DCE0101960E9484
:101820002116F82E882371F00CF450C1BE016F5FB1
:101830007F4F09DBE82ECE0101960E94F814EE20BE
:1018400009F424C20115110509F082C080918801B4
:10185000813009F4E8C1C7988091860181114FC099
:10186000CC9B00C2E9B2EE0CEE08ED1449F0809179
:10187000AF01811105C080919101823009F47DC2D0
:10188000CD9BEDC1D9B2D6FADD24D0F8D1948091A8
:10189000B401811129C1DB1409F426C181E0D812F9
:1018A00080E09091B601911111C02091B0012817EC
:1018B00069F00E942F011092920180919101813074
:1018C00009F4DDC280918601DE2CF3CE2FEFD21613
:1018D00009F406C12091E2013091E30130939E01A9
:1018E00020939D018093B00181E0D81609F41AC2BB
:1018F000A092AE0146D9BD2CDE2C66246394809163
:101900009101813081F180919201813009F48EC082
:10191000809186010F5F1F4F882309F4CECE9091EE
:10192000020191116BCF0115110509F4D3CE0111FC
:10193000C0CECC9913CF81E0D81609F432CF809174
:10194000E101EE24E3940FCF88B3805888BB64CFC5
:10195000809186018111D3CF002309F481CF80913A
:101960009101813081F68091B501882361F29091D7
:10197000A30180918501882309F4A6C18FEF890F07
:10198000823008F448C2809101012091D101309148
:10199000AF013111BFC12093AD01A092B70180FF0B
:1019A000EAC1959A83FDE5C18D9A81FFE0C1DB9A7A
:1019B00084FDDBC1D39A82FFCAC1DA9A85FDC5C115
:1019C000D29A8AC19FEFE91609F44FC1EE2DEE0FAE
:1019D000FF0BE352FE4F4081518150939C01409395
:1019E0009B01982F91709093AF019091B70199232B
:1019F00009F470C09091D101882309F46EC09195CB
:101A00009093AD018FEFE81205C08091DB01823029
:101A100009F474C15AD8DE2CCD99C5CE91E0B9161F
:101A200009F476CFEE24E39481E0C2CE9091B60122
:101A3000992309F46DCF2091A401909185019923F8
:101A400009F431C19FEF920F923008F4D9C19091FF
:101A500001018091D2013091B00131115FC18093B9
:101A6000AE01A092B80190FF7EC1C49A93FD79C1E6
:101A7000BC9A91FF74C1C39A94FD6FC1BB9A92FF47
:101A80006AC1C29A95FD65C1BA9A15C12FEFE216D7
:101A900009F429C12091E2013091E30130939E01C4
:101AA00020939D018093B0019091B801992309F48E
:101AB000D4C09091D201882309F4CCC09195909321
:101AC000AE015FD880918601BE2CF3CDCE01019688
:101AD0008FD7B8CE91E0811192CF9093AD0192CF84
:101AE0006110C3C1BB24BA94DE2C09CF0E941A0531
:101AF000E82E882309F4EACD81E06FD981E086D908
:101B00008FB7F894209293013092940140929501FE
:101B1000509296012092970130929801409299013B
:101B200050929A018FBFA3D6A092860122E0E216BE
:101B300009F4ACC110920201389AE0918401F0E0FE
:101B4000E050FF4F8081282F217080FDEEC09598D6
:101B5000982F987083FD52C18D9A222309F44CC1AD
:101B6000C49A911147C1BC9A282F227081FF40C1AD
:101B7000DB9A982F907184FD39C1D39A222309F4FE
:101B800033C1C39A91112EC1BB9A282F247082FFB2
:101B900027C1DA9A982F907285FD20C1D29A22230C
:101BA00009F41AC1C29A911115C1BA9A80E0ADD454
:101BB0001092B7011092B8019698A092B1011092BC
:101BC0007D0089B7837089BF1FBC8EBC10928B00CB
:101BD00080928A00C098A092B20110927D0089B7CD
:101BE000837089BF1FBC8EBC10928B0080928A00CC
:101BF000A092A301A092A4011092AF01A092AD0106
:101C00001092B001A092AD018091E6019091E701A0
:101C100090939C0180939B01A0929101BB24BA9464
:101C2000DD24DA9453CDC79A17CE9FEFE91232CF55
:101C30000E942F0180918601BB24BA943ACDBB202B
:101C400009F466CEE12CB3CDDD2009F4AACDE12C58
:101C500080E089CD9093AE0134CF91E02CCFDD248C
:101C6000D39415CEEE24E39400CE4091E60150913A
:101C7000E701B3CEC29870CDC3986ACDC49864CD45
:101C8000DA985ECDDB9857CD959850CDA3D69BE0E2
:101C900088E10FB6F894A89581BD0FBE91BD80E094
:101CA00090E00E9453199091B001911130C080933F
:101CB000AE011092B80120FF40C00E94C105709291
:101CC000920180918601F5CC8091AF0181111CC0F9
:101CD000A092AD011092B70190FF29C00E94650546
:101CE0007092910110CE80918601BB24BA94E1CC10
:101CF000A092AE0114CDA092AD0108CD222309F42B
:101D000095C0DD24DA944DCD9092AD01E3CF909251
:101D1000AE01CFCF21952093AD013FCE8195809329
:101D2000AE019FCE9092AE01E5CD959A11CF80E0A5
:101D30000E942E0610929101E6CD81E00E942E06AF
:101D40001092920180918601B4CCD298C5CFDA98D6
:101D500035CEBA98B0CFC29895CEBB9890CEC398E6
:101D60008BCEBC9886CEC49881CED39824CEDB98F7
:101D70001FCE8D981ACE959815CE9FEFE91609F4CF
:101D80005AC0EE2DEE0FFF0BE352FE4F8081918182
:101D900090939C0180939B010E94650521E02F8711
:101DA0006FCD809101019091D1012091AF0121115E
:101DB00052C09093AD01A092B7019091D2012091B1
:101DC000B001222309F458C091959093AE01A092DE
:101DD000B801A7CCBA98EACEC298E5CED298DFCEA9
:101DE000DA98D8CEBB98D1CEC398CCCED398C6CEF5
:101DF000DB98BFCEBC98B8CEC498B3CE8D98ADCE8C
:101E0000909100013091B00131112CC08093AE014E
:101E10001092B80128CE809100012091AF012111CC
:101E20001EC0A092AD011092B701B9CD0E94FA0078
:101E3000DD24DA94B6CC8F85882309F421CD8091F6
:101E4000E6019091E70190939C0180939B010E9491
:101E500065051F8615CD91959093AD01ACCF9092FD
:101E6000AD01E1CF9092AE01D3CF9923E9F0BB242D
:101E7000BA94DE2C612C43CD9093AE01A8CF809113
:101E8000B501DE2C882309F443CD71CDA092020167
:101E9000FED420E030E0A90160E0CE010C9603D62C
:101EA000CE010C96A5D512CC0E942F01BB24BA946A
:101EB000DE2C612C24CD1F920F920FB60F921124AD
:101EC0000F931F932F933F934F935F936F937F9342
:101ED0008F939F93EF93FF938AB59BB5019709F07A
:101EE0005EC081B7E82FEE73F0E0EA5FFB4F208120
:101EF000318130938100209380008F5F81BF80917A
:101F00008600909187009BBD8ABD2A9B5BC03A9852
:101F100000919701109198012091990130919A01B7
:101F20004091AE01042E000C550B660B770B400F51
:101F3000511F621F731F4093970150939801609344
:101F4000990170939A01A99B10C0AB990EC00091A2
:101F50008D0110918E0120918F01309190014017D9
:101F600051076207730709F483C02091F80130918B
:101F7000F90128173907A8F4A99B03C01092B401EE
:101F8000A99881E08093B60180917D008F7D809338
:101F90007D0080918A00887F80938A0002C09BBD6B
:101FA0008ABDFF91EF919F918F917F916F915F918A
:101FB0004F913F912F911F910F910F900FBE0F9056
:101FC0001F9018953A9A20918101211123C02091E8
:101FD000EC013091ED012817390700F580917F0160
:101FE0008F3398F48F5F80937F0190E0AC01440FB2
:101FF000551F840F951F8D569E4FFC01E95DFE4FC6
:10200000408151812417350718F1309387002093C0
:102010008600C7CF215020938101C3CF8217930739
:1020200028F580917F01882381F3815080937F017F
:1020300090E0AC01440F551F840F951F8D569E4FA5
:10204000FC01E95DFE4F4081518142175307E8F6DC
:102050002091B8012223D9F032968081982F990FD0
:10206000890F8E5F809381019A01CFCF9C01CDCFE4
:10207000AB9A2091F8013091F901A9014F5F5F4FB0
:102080005093ED014093EC011092810172CFFC015D
:10209000E75DFE4F8081809381019A01B6CF1F9248
:1020A0000F920FB60F9211240F931F932F933F930C
:1020B0004F935F936F937F938F939F93EF93FF93D0
:1020C00088B599B5019709F058C082B7E82FEE732B
:1020D000F0E0EA53FC4F2081318135BD24BD8F5F94
:1020E00082BF809184009091850099BD88BD849BBA
:1020F00057C09498009193011091940120919501FB
:10210000309196014091AD01042E000C550B660BE9
:10211000770B400F511F621F731F40939301509321
:1021200094016093950170939601A89B10C0AA99A1
:102130000EC00091890110918A0120918B0130918C
:102140008C01401751076207730709F47FC0209183
:10215000F6013091F7012817390788F4A89B03C0CE
:102160001092B301A89881E08093B50189B7877F69
:1021700089BF8EB5887F8EBD02C099BD88BDFF9195
:10218000EF919F918F917F916F915F914F913F91CF
:102190002F911F910F910F900FBE0F901F901895C8
:1021A000949A20918001211123C02091EA0130915D
:1021B000EB012817390700F580917E018F3398F4E1
:1021C0008F5F80937E0190E0AC01440F551F840F18
:1021D000951F8D569E4FFC01E959FF4F408151815B
:1021E0002417350718F13093850020938400C7CF5A
:1021F000215020938001C3CF8217930728F5809147
:102200007E01882381F3815080937E0190E0AC01B0
:10221000440F551F840F951F8D569E4FFC01E959A1
:10222000FF4F4081518142175307E8F62091B701D3
:102230002223D9F032968081982F990F890F8E5FD3
:10224000809380019A01CFCF9C01CDCFAA9A209193
:10225000F6013091F701A9014F5F5F4F5093EB01F9
:102260004093EA011092800176CFFC01E759FF4FBD
:102270008081809380019A01B6CF4091E601509110
:10228000E7019A01A1EFB0EFD2D7929582958F70B6
:1022900089279F7089279093DE018093DD0124E1D7
:1022A000249FC001259F900D11249093E0018093FD
:1022B000DF011092E1018091E8019091E90192958E
:1022C00082958F7089279F7089279093E30180936F
:1022D000E20108952F923F924F925F926F927F9208
:1022E0008F929F92AF92BF92CF92DF92EF92FF9226
:1022F0000F931F93CF93DF9300D000D0CDB7DEB7FD
:102300006B017C01242E8EE090E0A2D16093C1018C
:102310007093C2018093C3019093C40182E190E065
:1023200097D16093C5017093C6018093C7019093C4
:10233000C80186E190E08CD16093C9017093CA0115
:102340008093CB019093CC018AE190E081D160939E
:10235000CD017093CE018093CF019093D0018EE197
:1023600090E076D16093D3017093D4018093D5012E
:102370009093D60182E290E06BD16093D701709385
:10238000D8018093D9019093DA0186E290E051D18F
:102390009093E7018093E60188E290E04AD1909320
:1023A000E9018093E8018CE090E042D190E09093C5
:1023B000F3018093F2018DE090E03AD190E09093A8
:1023C000F5018093F4018EE290E032D18093DC013C
:1023D0008CE290E02ED19093E5018093E40144E6F5
:1023E00050E060E48AEF91E06AD144E251E060E4B9
:1023F0008AEB92E064D1E3E9F1E066EE71E04AEF46
:1024000051E00EEE11E086EF682E81E0782E9AEE14
:10241000492E91E0592EFA83E983FC83EB8320E077
:1024200030E033243394812C912CA0E8AA2EB12CD7
:10243000148EC9018D569E4FDC015A963C9214A20F
:1024400032A210A2168EAB81BC818D929D92AD926C
:10245000BC921397DB018D919D91BD01A981BA8139
:1024600019969C938E931897308AAB81BC815296B3
:102470001D921D921D921C9255979696CD92DD92BB
:10248000ED92FC92999726AEDA018D919C91D8013C
:102490008D939D938D01D3018D939D933D01019665
:1024A000D2018D939D932D01A981BA811D969C9394
:1024B0008E931C972F5F3F4F31968B819C810496A2
:1024C0009C838B831296BA83A98340545F4F22303A
:1024D000310509F0ADCF83E08093DB010F900F90C1
:1024E0000F900F90DF91CF911F910F91FF90EF9080
:1024F000DF90CF90BF90AF909F908F907F906F9024
:102500005F904F903F902F90B8CE482F8093DB0183
:102510008230C1F1813009F44DC0833009F469C0C3
:102520008091E6019091E70144E1489FF001499FC5
:10253000F00D11242091DC0130E0B9016C5E7F4F79
:10254000CF0139D67093DE016093DD0164E170E064
:10255000621B730BCF012FD67093E0016093DF01F4
:102560001092E1016091E8017091E901469FC0017C
:10257000479F900D1124B9011ED67093E30160931B
:10258000E20108958091F2019091F3019093DE01B0
:102590008093DD019093E0018093DF0181E08093DF
:1025A000E1018091F4019091F5019093E301809312
:1025B000E2010895E091E601F091E7019F01ABEAA5
:1025C000BAEA35D6969587959093DE018093DD0122
:1025D000F093E001E093DF014093E1018091E80195
:1025E0009091E901969587959093E3018093E2019C
:1025F000089543CEEFE0F1E02AE690E005C09F5F4A
:102600009632A1F0208133968213F9CF892F90E082
:10261000FC01EE0FFF1F8E0F9F1FFC01E45FFE4FBA
:10262000662311F081810895828108958FEF0895C6
:1026300025C61F93CF93DF93EC0120D6182FCE0130
:1026400001961CD6982F812FDF91CF911F9108956D
:10265000CF92DF92EF92FF92CF93DF93EC01E9DF0D
:102660006C01CE010296E5DF7C01C701B601DF9166
:10267000CF91FF90EF90DF90CF900895EF92FF926F
:102680000F931F93CF93DF93662391F0EA018C01A0
:1026900061507A01E60EF11C8FEFE81AF80ACE01BC
:1026A000EDD5F80181938F012196CE15DF05B9F79D
:1026B000DF91CF911F910F91FF90EF900895EF92CE
:1026C000FF920F931F93CF93DF93E62E8A01662329
:1026D00081F0EC01F12CC801ACDF99838883C8013B
:1026E0000296A7DF8A830D5F1F4FF3942396EF10A6
:1026F000F2CFDF91CF911F910F91FF90EF9008954E
:10270000282FCB01622FC2C51F93CF93DF93192FC0
:10271000EB01682FCE01BAD5612FCE010196DF9172
:10272000CF911F91B3C5CF92DF92EF92FF92CF93DB
:10273000DF936B017C01EA01BA01C601E5DFBE014E
:102740006E5F7F4FC701DF91CF91FF90EF90DF90D9
:10275000CF90DACFEF92FF920F931F93CF93DF9337
:10276000662391F0EC016150E62EF12C8FEFE81A10
:10277000F80AEC0EFD1E8A016991C80187D50F5F2A
:102780001F4FCE15DF05C1F7DF91CF911F910F913C
:10279000FF90EF900895EF92FF920F931F93CF93C6
:1027A000DF93E62E8A01662381F0EC01F12CB8015B
:1027B00088819981A9DF6A81C801029667D50D5F7A
:1027C0001F4FF3942396EF10F2CFDF91CF911F911B
:1027D0000F91FF90EF900895CF92DF92EF92FF92CA
:1027E0006B017C0182E08BB960E079E08DE390E0E1
:1027F000A7019601F4D4DA01C9010197A109B10931
:10280000AC01BD017695679557954795942F852F17
:10281000252F207FA9F01BB860E874E88EE190E0D6
:10282000A7019601DCD4DA01C9010197A109B10918
:10283000AC01BD017695679557954795942F852FE7
:102840008F7080BD99B98FB7F8941092BD03109224
:10285000BE0310929B0310929C038FBF549A539A0D
:10286000579A5598FF90EF90DF90CF900895549825
:102870005398579855988FB7F894EDE9F3E010A264
:1028800011A2EBE7F3E010A211A28FBF0895D59A31
:10289000DD9AD798DF9AD69ADE9AD49ADC9A389A3B
:1028A0008FB7F894EDE9F3E010A211A2EBE7F3E0A3
:1028B00010A211A28FBF81E080937A030895D5986A
:1028C000DD9AD798DF9AD698DE9AD498DC9A10923F
:1028D0007A038FB7F894EDE9F3E010A211A2EBE7C9
:1028E000F3E010A211A28FBF089598E008C0000085
:1028F000DE98DD9A880FCF990AC0915059F0DD9883
:1029000087FFF5CFDE9ADD9A880FCF9BF6CF8F5FDA
:102910009150A9F7089590919C0380919B0398177B
:1029200009F082990895DC9881E8DFDF829BFECF71
:1029300080E8DBDF87FD0BC0E0919B03F0E0E5580A
:10294000FC4F808380919B038F5F80939B03DC9A75
:10295000089580917A038111DEDF80919B0390912D
:102960009C03891B8F71089590919C0380919B0318
:10297000981751F0E92FF0E0E558FC4F80819F5FF8
:102980009F7190939C0308958FEF0895539B12C0FD
:102990009091BD039F5F9F712091BE039217A1F09C
:1029A000E091BD03F0E0E356FC4F80839093BD03BC
:1029B000559A089590917A03911101C00895DC9879
:1029C0008F7793DFDC9A0895559A2091BE03921772
:1029D000E1F3E6CF539B0BC09091BD038091BE0302
:1029E000981729F0559A8091BE039813FCCF08954B
:1029F000CF93DF93EC018881882329F02196C6DFED
:102A000089918111FCCFDF91CF9108952F932FB73A
:102A10002F939F938F93EF93FF932CB180919B0300
:102A20008F5F8F7190919C03891741F0E0919B0318
:102A3000F0E0E558FC4F208380939B03FF91EF91DA
:102A40008F919F912F912FBF2F9118958F938FB7B3
:102A50008F939F93EF93FF938091BE039091BD035B
:102A6000891302C055980AC0E82FF0E0E356FC4FE6
:102A700090818F5F8F718093BE039CB9FF91EF911E
:102A80009F918F918FBF8F91189510924A04109249
:102A90004C042BE0EDE4F4E0DF011D922A95E9F708
:102AA0001092490417CCFF920F931F93CF93DF939B
:102AB000EC01862F122F032FF42E611115C081E235
:102AC000888382E090E021E030E0FE01E20FF31F16
:102AD0004DE04083FE01E80FF91F1082DF91CF9196
:102AE0001F910F91FF90089560E084DD87FDE7CF8F
:102AF0009DE39883823061F08330E9F08630B1F154
:102B0000082E000C990B9C012F5F3F4F0296DDCFE2
:102B1000812F82958F701F701A3008F0195F105D39
:102B20001A838A3008F0895F805D898384E090E0B1
:102B300023E030E0CACF812F912F8F708A3008F0C8
:102B4000895F805D8B83892F82958F708A3008F032
:102B5000895F805D8A830F700A3008F0095F005D2D
:102B6000098385E090E024E030E0AFCF9F2D92957F
:102B70009F708F2D8F708A3008F0895F805D8E8303
:102B8000892F9A3008F0895F805D8D83802F829530
:102B90008F700F700A3008F0095F005D0C838A3077
:102BA00008F0895F805D8B83812F82958F701F7005
:102BB0001A3008F0195F105D1A838A3008F0895FB7
:102BC000805D898388E090E027E030E07ECF0F933E
:102BD0001F93CF9320914D0420934B0490914E046A
:102BE000915390934904923028F080E0CF911F9147
:102BF0000F9108958B01C82F61E0822FFBDC2DEF30
:102C00002C0F082E000C990B622F70E08617970787
:102C100061F7222399F0EFE4F4E0D8018CEF8C0FF8
:102C200090E0805B9B4F21912D93E817F907D9F72E
:102C3000F801E60FF71F108281E0D8CF60E070E066
:102C4000F7CFCF93DF9320914A042223A9F06A3370
:102C500031F1EC01E0914C0481E08E0F80934C0443
:102C6000F0E0E35BFB4F60836D3081F08B3009F166
:102C700080E0DF91CF9108956A33D1F710924C0430
:102C800081E080934A0410924D04F2CFBE019FDF91
:102C9000882379F010924A0480914B04EACF21E214
:102CA000FC0120832DE02183128210924A048EEFD2
:102CB000E0CF81E288838DE089831A8210924A04F2
:102CC0008FEFD7CFFC0191819A330CF0975090533E
:102CD00080818A330CF087508295807F9F70892B8A
:102CE0000895FC0161816A330CF067506053808164
:102CF0008A330CF087508295807F6F70682B7381C8
:102D00007A330CF07750705382818A330CF08750FD
:102D10008295807F7F70782B95819A330CF0975045
:102D2000905384818A330CF087508295807F9F7006
:102D3000892B90E008958091490408955058BB274D
:102D4000AA270ED084C175D130F07AD120F031F4A9
:102D50009F3F11F41EF46AC10EF4E095E7FB37C102
:102D6000E92F86D180F3BA176207730784079507A6
:102D700018F071F49EF5B5C10EF4E0950B2EBA2F44
:102D8000A02D0B01B90190010C01CA01A001112471
:102D9000FF27591B99F0593F50F4503E68F11A161D
:102DA000F040A22F232F342F4427585FF3CF4695AE
:102DB00037952795A795F0405395C9F77EF41F16D0
:102DC000BA0B620B730B840BBAF09150A1F0FF0F9A
:102DD000BB1F661F771F881FC2F70EC0BA0F621F86
:102DE000731F841F48F4879577956795B795F79576
:102DF0009E3F08F0B3CF9395880F08F09927EE0F08
:102E000097958795089556D180F09F3740F491119A
:102E10000EF468C160E070E080E89FE3089526F05A
:102E20001B16611D711D811DD8C0F2C00CD00FC1D1
:102E300007D140F0FED030F021F45F3F19F0C7C059
:102E4000511150C1F3C014D198F39923C9F35523FC
:102E5000B1F3951B550BBB27AA276217730784078D
:102E600038F09F5F5F4F220F331F441FAA1FA9F343
:102E700033D00E2E3AF0E0E830D091505040E69535
:102E8000001CCAF729D0FE2F27D0660F771F881F96
:102E9000BB1F261737074807AB07B0E809F0BB0B85
:102EA000802DBF01FF2793585F4F2AF09E3F5105A9
:102EB00068F08DC017C15F3FECF3983EDCF3869558
:102EC00077956795B795F7959F5FC9F7880F911D1F
:102ED0009695879597F90895E1E0660F771F881F0B
:102EE000BB1F621773078407BA0720F0621B730BBE
:102EF000840BBA0BEE1F88F7E0950895C1D088F0D7
:102F00009F5790F0B92F9927B751A0F0D1F0660FD5
:102F1000771F881F991F1AF0BA95C9F712C0B130F0
:102F200081F0DFD0B1E00895DCC0672F782F8827CB
:102F3000B85F39F0B93FCCF3869577956795B3952F
:102F4000D9F73EF490958095709561957F4F8F4F9E
:102F50009F4F0895E89409C097FB3EF490958095A3
:102F6000709561957F4F8F4F9F4F9923A9F0F92F4F
:102F700096E9BB279395F695879577956795B795CD
:102F8000F111F8CFFAF4BB0F11F460FF1BC06F5FB3
:102F90007F4F8F4F9F4F16C0882311F096E911C0C5
:102FA000772321F09EE8872F762F05C0662371F0E6
:102FB00096E8862F70E060E02AF09A95660F771FFA
:102FC000881FDAF7880F9695879597F9089597F9EE
:102FD0009F6780E870E060E00895882371F47723AC
:102FE00021F09850872B762F07C0662311F499277C
:102FF0000DC09051862B70E060E02AF09A95660F24
:10300000771F881FDAF7880F9695879597F90895A7
:103010009F3F31F0915020F4879577956795B7954C
:10302000880F911D9695879597F908959FEF80ECED
:10303000089500240A94161617061806090608951E
:1030400000240A9412161306140605060895092E84
:103050000394000C11F4882352F0BB0F40F4BF2BF3
:1030600011F460FF04C06F5F7F4F8F4F9F4F089533
:1030700057FD9058440F551F59F05F3F71F0479529
:10308000880F97FB991F61F09F3F79F0879508950E
:10309000121613061406551FF2CF4695F1DF08C02D
:1030A000161617061806991FF1CF8695710561054A
:1030B00008940895E5DFA0F0BEE7B91788F4BB27B0
:1030C0009F3860F41616B11D672F782F8827985FF8
:1030D000F7CF869577956795B11D93959639C8F387
:1030E0000895E894BB2766277727CB0197F90895C1
:1030F0000BD0ADCF9EDF28F0A3DF18F0952309F0A9
:1031000066CF94CF1124EECFB3DFA0F3959FD1F318
:10311000950F50E0551F629FF001729FBB27F00D85
:10312000B11D639FAA27F00DB11DAA1F649F6627DA
:10313000B00DA11D661F829F2227B00DA11D621F29
:10314000739FB00DA11D621F839FA00D611D221FE3
:10315000749F3327A00D611D231F849F600D211DC7
:10316000822F762F6A2F11249F5750408AF0E1F06A
:1031700088234AF0EE0FFF1FBB1F661F771F881FB3
:1031800091505040A9F79E3F510570F020CFAACF33
:103190005F3FECF3983EDCF3869577956795B7959E
:1031A000F795E7959F5FC1F7FE2B880F911D9695C8
:1031B000879597F90895AA1BBB1B51E107C0AA1F69
:1031C000BB1FA617B70710F0A61BB70B881F991FC8
:1031D0005A95A9F780959095BC01CD010895A1E27B
:1031E0001A2EAA1BBB1BFD010DC0AA1FBB1FEE1F81
:1031F000FF1FA217B307E407F50720F0A21BB30BCC
:10320000E40BF50B661F771F881F991F1A9469F747
:1032100060957095809590959B01AC01BD01CF01A3
:103220000895EE0FFF1F0590F491E02D0994A29FE1
:10323000B001B39FC001A39F700D811D1124911D8A
:10324000B29F700D811D1124911D0895F0DFA59F7F
:10325000900DB49F900DA49F800D911D1124089591
:10326000FB01DC014150504030F08D9101908019FC
:1032700019F40020B9F7881B990B0895E199FECF46
:103280009FBB8EBBE09A99278DB30895262FE199B5
:10329000FECF9FBB8EBB2DBB0FB6F894E29AE19A8E
:0A32A0000FBE01960895F894FFCFC9
:1032AA0003000141455100382E3134006A00066698
:1032BA0000034906004702004A00004B0000480686
:1032CA00004D0600650006610006620006670002FE
:1032DA007300064506005001004600004C000056E7
:1032EA0002004F01004106004206005306006E002C
:1032FA00064E060044020064000243010063000215
:10330A005A02007A00025206007200065102007147
:0E331A00000258060078000659020054010017
:00000001FF
